{
  "contractName": "SupplyChain",
  "abi": [
    {
      "anonymous": false,
      "inputs": [
        {
          "indexed": false,
          "internalType": "uint256",
          "name": "productId",
          "type": "uint256"
        },
        {
          "indexed": false,
          "internalType": "string",
          "name": "location",
          "type": "string"
        },
        {
          "indexed": false,
          "internalType": "address",
          "name": "owner",
          "type": "address"
        }
      ],
      "name": "ProductUpdated",
      "type": "event"
    },
    {
      "inputs": [],
      "name": "productCount",
      "outputs": [
        {
          "internalType": "uint256",
          "name": "",
          "type": "uint256"
        }
      ],
      "stateMutability": "view",
      "type": "function",
      "constant": true
    },
    {
      "inputs": [
        {
          "internalType": "uint256",
          "name": "",
          "type": "uint256"
        }
      ],
      "name": "products",
      "outputs": [
        {
          "internalType": "uint256",
          "name": "id",
          "type": "uint256"
        },
        {
          "internalType": "string",
          "name": "name",
          "type": "string"
        },
        {
          "internalType": "string",
          "name": "currentLocation",
          "type": "string"
        },
        {
          "internalType": "address",
          "name": "owner",
          "type": "address"
        }
      ],
      "stateMutability": "view",
      "type": "function",
      "constant": true
    },
    {
      "inputs": [
        {
          "internalType": "string",
          "name": "name",
          "type": "string"
        },
        {
          "internalType": "string",
          "name": "initialLocation",
          "type": "string"
        }
      ],
      "name": "addProduct",
      "outputs": [],
      "stateMutability": "nonpayable",
      "type": "function"
    },
    {
      "inputs": [
        {
          "internalType": "uint256",
          "name": "productId",
          "type": "uint256"
        },
        {
          "internalType": "string",
          "name": "newLocation",
          "type": "string"
        }
      ],
      "name": "updateLocation",
      "outputs": [],
      "stateMutability": "nonpayable",
      "type": "function"
    },
    {
      "inputs": [
        {
          "internalType": "uint256",
          "name": "productId",
          "type": "uint256"
        }
      ],
      "name": "getProductHistory",
      "outputs": [
        {
          "internalType": "string[]",
          "name": "",
          "type": "string[]"
        }
      ],
      "stateMutability": "view",
      "type": "function",
      "constant": true
    },
    {
      "inputs": [],
      "name": "getAllProducts",
      "outputs": [
        {
          "components": [
            {
              "internalType": "uint256",
              "name": "id",
              "type": "uint256"
            },
            {
              "internalType": "string",
              "name": "name",
              "type": "string"
            },
            {
              "internalType": "string",
              "name": "currentLocation",
              "type": "string"
            },
            {
              "internalType": "address",
              "name": "owner",
              "type": "address"
            },
            {
              "internalType": "string[]",
              "name": "history",
              "type": "string[]"
            }
          ],
          "internalType": "struct SupplyChain.Product[]",
          "name": "",
          "type": "tuple[]"
        }
      ],
      "stateMutability": "view",
      "type": "function",
      "constant": true
    }
  ],
  "bytecode": "0x608060405234801561001057600080fd5b5061155f806100206000396000f3fe608060405234801561001057600080fd5b50600436106100625760003560e01c806302ee3a52146100675780634ec0c9e91461008557806357a096a1146100a15780637acc0b20146100d1578063ca2efb5514610104578063e0f6ef8714610120575b600080fd5b61006f61013e565b60405161007c9190611128565b60405180910390f35b61009f600480360381019061009a9190610d53565b6104b5565b005b6100bb60048036038101906100b69190610d2a565b610645565b6040516100c89190611106565b60405180910390f35b6100eb60048036038101906100e69190610d2a565b610784565b6040516100fb94939291906111e3565b60405180910390f35b61011e60048036038101906101199190610cbe565b6108e4565b005b610128610a8f565b604051610135919061118a565b60405180910390f35b6060600060015467ffffffffffffffff811115610184577f4e487b7100000000000000000000000000000000000000000000000000000000600052604160045260246000fd5b6040519080825280602002602001820160405280156101bd57816020015b6101aa610a95565b8152602001906001900390816101a25790505b5090506000600190505b60015481116104ad576000808281526020019081526020016000206040518060a001604052908160008201548152602001600182018054610207906113f9565b80601f0160208091040260200160405190810160405280929190818152602001828054610233906113f9565b80156102805780601f1061025557610100808354040283529160200191610280565b820191906000526020600020905b81548152906001019060200180831161026357829003601f168201915b50505050508152602001600282018054610299906113f9565b80601f01602080910402602001604051908101604052809291908181526020018280546102c5906113f9565b80156103125780601f106102e757610100808354040283529160200191610312565b820191906000526020600020905b8154815290600101906020018083116102f557829003601f168201915b505050505081526020016003820160009054906101000a900473ffffffffffffffffffffffffffffffffffffffff1673ffffffffffffffffffffffffffffffffffffffff1673ffffffffffffffffffffffffffffffffffffffff16815260200160048201805480602002602001604051908101604052809291908181526020016000905b828210156104425783829060005260206000200180546103b5906113f9565b80601f01602080910402602001604051908101604052809291908181526020018280546103e1906113f9565b801561042e5780601f106104035761010080835404028352916020019161042e565b820191906000526020600020905b81548152906001019060200180831161041157829003601f168201915b505050505081526020019060010190610396565b5050505081525050826001836104589190611347565b8151811061048f577f4e487b7100000000000000000000000000000000000000000000000000000000600052603260045260246000fd5b602002602001018190525080806104a59061142b565b9150506101c7565b508091505090565b6000821180156104c757506001548211155b610506576040517f08c379a00000000000000000000000000000000000000000000000000000000081526004016104fd9061114a565b60405180910390fd5b600080600084815260200190815260200160002090508060030160009054906101000a900473ffffffffffffffffffffffffffffffffffffffff1673ffffffffffffffffffffffffffffffffffffffff163373ffffffffffffffffffffffffffffffffffffffff16146105ae576040517f08c379a00000000000000000000000000000000000000000000000000000000081526004016105a59061116a565b60405180910390fd5b818160020190805190602001906105c6929190610ada565b508060040182908060018154018082558091505060019003906000526020600020016000909190919091509080519060200190610604929190610ada565b507f6599e0074698ba3478733fbb2dac5ef719075c18d140e6c6ad768d8f970b22c5838333604051610638939291906111a5565b60405180910390a1505050565b606060008211801561065957506001548211155b610698576040517f08c379a000000000000000000000000000000000000000000000000000000000815260040161068f9061114a565b60405180910390fd5b600080838152602001908152602001600020600401805480602002602001604051908101604052809291908181526020016000905b828210156107795783829060005260206000200180546106ec906113f9565b80601f0160208091040260200160405190810160405280929190818152602001828054610718906113f9565b80156107655780601f1061073a57610100808354040283529160200191610765565b820191906000526020600020905b81548152906001019060200180831161074857829003601f168201915b5050505050815260200190600101906106cd565b505050509050919050565b60006020528060005260406000206000915090508060000154908060010180546107ad906113f9565b80601f01602080910402602001604051908101604052809291908181526020018280546107d9906113f9565b80156108265780601f106107fb57610100808354040283529160200191610826565b820191906000526020600020905b81548152906001019060200180831161080957829003601f168201915b50505050509080600201805461083b906113f9565b80601f0160208091040260200160405190810160405280929190818152602001828054610867906113f9565b80156108b45780601f10610889576101008083540402835291602001916108b4565b820191906000526020600020905b81548152906001019060200180831161089757829003601f168201915b5050505050908060030160009054906101000a900473ffffffffffffffffffffffffffffffffffffffff16905084565b600160008154809291906108f79061142b565b919050555060606040518060a0016040528060015481526020018481526020018381526020013373ffffffffffffffffffffffffffffffffffffffff168152602001828152506000806001548152602001908152602001600020600082015181600001556020820151816001019080519060200190610977929190610ada565b506040820151816002019080519060200190610994929190610ada565b5060608201518160030160006101000a81548173ffffffffffffffffffffffffffffffffffffffff021916908373ffffffffffffffffffffffffffffffffffffffff16021790555060808201518160040190805190602001906109f8929190610b60565b50905050600080600154815260200190815260200160002060040182908060018154018082558091505060019003906000526020600020016000909190919091509080519060200190610a4c929190610ada565b507f6599e0074698ba3478733fbb2dac5ef719075c18d140e6c6ad768d8f970b22c56001548333604051610a82939291906111a5565b60405180910390a1505050565b60015481565b6040518060a00160405280600081526020016060815260200160608152602001600073ffffffffffffffffffffffffffffffffffffffff168152602001606081525090565b828054610ae6906113f9565b90600052602060002090601f016020900481019282610b085760008555610b4f565b82601f10610b2157805160ff1916838001178555610b4f565b82800160010185558215610b4f579182015b82811115610b4e578251825591602001919060010190610b33565b5b509050610b5c9190610bc0565b5090565b828054828255906000526020600020908101928215610baf579160200282015b82811115610bae578251829080519060200190610b9e929190610ada565b5091602001919060010190610b80565b5b509050610bbc9190610bdd565b5090565b5b80821115610bd9576000816000905550600101610bc1565b5090565b5b80821115610bfd5760008181610bf49190610c01565b50600101610bde565b5090565b508054610c0d906113f9565b6000825580601f10610c1f5750610c3e565b601f016020900490600052602060002090810190610c3d9190610bc0565b5b50565b6000610c54610c4f84611267565b611236565b905082815260208101848484011115610c6c57600080fd5b610c778482856113b7565b509392505050565b600082601f830112610c9057600080fd5b8135610ca0848260208601610c41565b91505092915050565b600081359050610cb881611512565b92915050565b60008060408385031215610cd157600080fd5b600083013567ffffffffffffffff811115610ceb57600080fd5b610cf785828601610c7f565b925050602083013567ffffffffffffffff811115610d1457600080fd5b610d2085828601610c7f565b9150509250929050565b600060208284031215610d3c57600080fd5b6000610d4a84828501610ca9565b91505092915050565b60008060408385031215610d6657600080fd5b6000610d7485828601610ca9565b925050602083013567ffffffffffffffff811115610d9157600080fd5b610d9d85828601610c7f565b9150509250929050565b6000610db38383610f4c565b905092915050565b6000610dc78383611064565b905092915050565b610dd88161137b565b82525050565b610de78161137b565b82525050565b6000610df8826112b7565b610e0281856112f2565b935083602082028501610e1485611297565b8060005b85811015610e505784840389528151610e318582610da7565b9450610e3c836112d8565b925060208a01995050600181019050610e18565b50829750879550505050505092915050565b6000610e6d826112b7565b610e778185611303565b935083602082028501610e8985611297565b8060005b85811015610ec55784840389528151610ea68582610da7565b9450610eb1836112d8565b925060208a01995050600181019050610e8d565b50829750879550505050505092915050565b6000610ee2826112c2565b610eec8185611314565b935083602082028501610efe856112a7565b8060005b85811015610f3a5784840389528151610f1b8582610dbb565b9450610f26836112e5565b925060208a01995050600181019050610f02565b50829750879550505050505092915050565b6000610f57826112cd565b610f618185611325565b9350610f718185602086016113c6565b610f7a81611501565b840191505092915050565b6000610f90826112cd565b610f9a8185611336565b9350610faa8185602086016113c6565b610fb381611501565b840191505092915050565b6000610fcb601683611336565b91507f50726f6475637420646f6573206e6f74206578697374000000000000000000006000830152602082019050919050565b600061100b602583611336565b91507f4f6e6c7920746865206f776e65722063616e207570646174652074686520707260008301527f6f647563740000000000000000000000000000000000000000000000000000006020830152604082019050919050565b600060a08301600083015161107c60008601826110e8565b50602083015184820360208601526110948282610f4c565b915050604083015184820360408601526110ae8282610f4c565b91505060608301516110c36060860182610dcf565b50608083015184820360808601526110db8282610ded565b9150508091505092915050565b6110f1816113ad565b82525050565b611100816113ad565b82525050565b600060208201905081810360008301526111208184610e62565b905092915050565b600060208201905081810360008301526111428184610ed7565b905092915050565b6000602082019050818103600083015261116381610fbe565b9050919050565b6000602082019050818103600083015261118381610ffe565b9050919050565b600060208201905061119f60008301846110f7565b92915050565b60006060820190506111ba60008301866110f7565b81810360208301526111cc8185610f85565b90506111db6040830184610dde565b949350505050565b60006080820190506111f860008301876110f7565b818103602083015261120a8186610f85565b9050818103604083015261121e8185610f85565b905061122d6060830184610dde565b95945050505050565b6000604051905081810181811067ffffffffffffffff8211171561125d5761125c6114d2565b5b8060405250919050565b600067ffffffffffffffff821115611282576112816114d2565b5b601f19601f8301169050602081019050919050565b6000819050602082019050919050565b6000819050602082019050919050565b600081519050919050565b600081519050919050565b600081519050919050565b6000602082019050919050565b6000602082019050919050565b600082825260208201905092915050565b600082825260208201905092915050565b600082825260208201905092915050565b600082825260208201905092915050565b600082825260208201905092915050565b6000611352826113ad565b915061135d836113ad565b9250828210156113705761136f611474565b5b828203905092915050565b60006113868261138d565b9050919050565b600073ffffffffffffffffffffffffffffffffffffffff82169050919050565b6000819050919050565b82818337600083830152505050565b60005b838110156113e45780820151818401526020810190506113c9565b838111156113f3576000848401525b50505050565b6000600282049050600182168061141157607f821691505b60208210811415611425576114246114a3565b5b50919050565b6000611436826113ad565b91507fffffffffffffffffffffffffffffffffffffffffffffffffffffffffffffffff82141561146957611468611474565b5b600182019050919050565b7f4e487b7100000000000000000000000000000000000000000000000000000000600052601160045260246000fd5b7f4e487b7100000000000000000000000000000000000000000000000000000000600052602260045260246000fd5b7f4e487b7100000000000000000000000000000000000000000000000000000000600052604160045260246000fd5b6000601f19601f8301169050919050565b61151b816113ad565b811461152657600080fd5b5056fea26469706673582212203c4e2dbcd4b38d317429d361a0eabab8bfa767ccbbf6c8f9134307381d90df4064736f6c63430008000033",
  "immutableReferences": {},
  "source": "// SPDX-License-Identifier: MIT\r\npragma solidity ^0.8.0;\r\n\r\ncontract SupplyChain {\r\n    struct Product {\r\n        uint256 id;\r\n        string name;\r\n        string currentLocation;\r\n        address owner;\r\n        string[] history;\r\n    }\r\n\r\n    mapping(uint256 => Product) public products;\r\n    uint256 public productCount;\r\n\r\n    event ProductUpdated(uint256 productId, string location, address owner);\r\n\r\n    // Add a new product to the supply chain\r\n    function addProduct(string memory name, string memory initialLocation) public {\r\n        productCount++; // Increment the product count\r\n        string[] memory emptyHistory; // Initialize an empty string array\r\n        products[productCount] = Product(\r\n            productCount,\r\n            name,\r\n            initialLocation,\r\n            msg.sender,\r\n            emptyHistory\r\n        );\r\n        products[productCount].history.push(initialLocation); // Add the initial location to history\r\n        emit ProductUpdated(productCount, initialLocation, msg.sender);\r\n    }\r\n\r\n    // Update the location of a product\r\n    function updateLocation(uint256 productId, string memory newLocation) public {\r\n        require(productId > 0 && productId <= productCount, \"Product does not exist\");\r\n        Product storage product = products[productId];\r\n        require(msg.sender == product.owner, \"Only the owner can update the product\");\r\n\r\n        product.currentLocation = newLocation;\r\n        product.history.push(newLocation); // Add the new location to the history\r\n        emit ProductUpdated(productId, newLocation, msg.sender);\r\n    }\r\n\r\n    // Retrieve the location history of a product\r\n    function getProductHistory(uint256 productId) public view returns (string[] memory) {\r\n        require(productId > 0 && productId <= productCount, \"Product does not exist\");\r\n        return products[productId].history;\r\n    }\r\n\r\n    // Retrieve all products in the supply chain\r\n    function getAllProducts() public view returns (Product[] memory) {\r\n        Product[] memory productList = new Product[](productCount);\r\n        for (uint256 i = 1; i <= productCount; i++) {\r\n            productList[i - 1] = products[i]; // Populate the array with products\r\n        }\r\n        return productList;\r\n    }\r\n}\r\n",
  "sourcePath": "C:\\Users\\User\\Documents\\SupplyChainProject\\contracts\\SupplyChain.sol",
  "compiler": {
    "name": "solc",
    "version": "0.8.0+commit.c7dfd78e.Emscripten.clang"
  },
  "schemaVersion": "3.4.16",
  "updatedAt": "2025-02-22T15:40:19.361Z",
  "networkType": "ethereum",
  "devdoc": {
    "kind": "dev",
    "methods": {},
    "version": 1
  },
  "userdoc": {
    "kind": "user",
    "methods": {},
    "version": 1
  }
}